S123AC0008183A000004000000FF1B000000000000000000000000000000000000000000B8
S11EAC2000000000000000000000009FFF000001000000000000000000000076
S104AC4960A6
S123AC4E2B2B2B043F3F3F04574841543F0443414E2754205452414E53464552044E4F545E
S123AC6E20464F554E44044449534B204552524F52202304445249564553204E4F542052B6
S123AC8E454144590447455400B23C4D4F4E00B37900271003E80064000A4552524F52532A
S108ACAE00005359539E
S104ACC03956
S104ACD8393E
S104ACE43932
S123ACF801000000000000007EAD577EAD667EADAF7EAD097EAD0C7EAD0F7EAD127EAF102B
S123AD187EAF537EAE477EAE9D7EAFFF7EAECF7EB01E7EADE97EB0497EB1D07EB0F47EB10D
S123AD38BF7EAF947EAFE87EB2AA7EB14B7EAFE57EB18A7EB3577EAD4E7EAE047EAE048E54
S123AD58A07F7FAC11BDB4007FAC28BDB3FD8EA07FBDBE98CEAD03FFAC16CEA700FFA00038
S123AD78FEB3E7FFA000CEACF8FFAC317FAC347FAC4C8D5DB6AC11B1AC0226057CAC152018
S123AD98167DAC2827037EB36BBDB40326B4CEAC4EBDAE9DBDAE47BDB0E0810D27E3CEA83F
S107ADB8407CAC0D1E
S123ADBCBDB0492517CEAC938D3F2709FEAC1227088D362604EE016E00BDB25ECEAC568620
S123ADDC15B7AC20BDAE9D7FAC117EAD66FEAD13FFAD10FEAD0DFFAD0A7FAC217FAC227FE6
S123ADFCAC237FAC247FAC2639FFAC3DCEA844A600815F23028020FFAC41FEAC3DA1002604
S123AE1C1B08FFAC3D6D00260DFEAC41A601FEAC3D4D27162006FEAC410820D3086D0026BD
S123AE3CFB0808086D0026C1860139CEA080FFAC14BDAF10B1AC01271EB1AC002720810DCD
S123AE5C270D810A2732811F23E78CA0FF27E2A70008810D26DB39CEAC528D2520CD8CA0CE
S107AE7C8027F4092A
S123AE80B6AC07810826088620BDAF76B6AC07BDAF7620B9860DBDAF53862020C98D30A69E
S123AEA00081042769BDAF530820F4BDAD4E275FBDAD09B1AC0A26577FAC1ABDAD09B1ACF4
S123AEC00A274C810D26F47FAC11FEAC166E007DAC2126258DD5B6AC03271EB1AC1A22168F
S123AEE07FAC1A7DAC0927028DCE37F6AC0827058D075A26FB337CAC1A860D8D56860A8D2F
S123AF005237F6AC0527064F8D495A26FA330C397DAC23261A7DAC2627108D1A7DAC2F2781
S123AF20117DAC24270C8D4E2008BDAD092003BDAD0C7FAC1A39FFAC47FEAC262006FFAC5C
S107AF4047FEAC24F4
S123AF44BDB4062604FEAC47397FAC247EB3887DAC21261E811F22057FAC2920157CAC29E7
S123AF6436B6AC04270BB1AC292406BDAECF7CAC2932367DAC2226137DAC2427048DBB20F4
S123AF840D7DAC262608BDAD0F2003BDAD1232397FAC4AF7AC1D8604B7AC4DA600E601CED2
S123AFA4ACA08D0A08087AAC4D26F71720407FAC4BA100250F2204E1012509E001A2007C0F
S123AFC4AC4B20ED36B6AC4B26107DAC4A260B7DAC1D270B86208D2020057CAC4A8D0F3278
S123AFE4398D0108A600444444448D02A600840F8B30813923028B077EAF538130251481E5
S107B0043923158152
S123B00841250C815A230D81612504817A23050DB7AC11390C39FFAC3DFEAC14B6AC18B7A3
S123B028AC19A600B7AC18810D2711B1AC02270C08FFAC1481202604A10027E6FEAC3D207F
S123B048B68615A70186FFA7036F046F0CBDB0E08608B7AC4B8D33252E260F8D2D252826D0
S123B06809BCAC3F27678D222363FEAC3F6D04275C6D032A0F7DAC0D2705B6AC0B2003B623
S123B088AC0CA7037FAC0D7EB3218D8A253F81392214FEAC3F6D032A348403A703BDB01EDA
S123B0A8242B812E0C39F6AC4B2B2237C005F7AC4B33B1AC4925028020A704085ABDB01EE5
S107B0C82408812DA6
S123B0CC2704815F26055D26E50D395D27D06F04085A20F7FFAC3FFEAC14A6008120260324
S123B0EC0820F7FFAC14209BFFAC3BE60C2628FFAC3DCEB127810B221E16581B16BDB1BF5B
S123B10CC603A60008FFAC41FEAC3DA70C08FFAC3DFEAC415A26EBFEAC3B3942494E545839
S123B12C54434D4442415353595342414B5343524441544241434449525052544F5554BD23
S123B14CB24BBDB01E25208D23251637C60478AC1C79AC1B5A26F733BBAC1CB7AC1C5C207E
S123B16CE1BDB01E24FB39FEAC1B0C3980472A0C8B062A048B072A048B0A2AEE0D39BDB213
S107B18C4BBDB01EE5
S123B19025E1813922D7840F3736B6AC1BF6AC1C58495849FBAC1CB9AC1B5849F7AC1C338F
S123B1B0FBAC1C8900F7AC1CB7AC1B335C20CEFFAC3FFBAC40F7AC4024037CAC3F7EB321E1
S123B1D07FAC1D8D4081022715811626F68D36B7AC1E8D31B7AC1F8601B7AC1D20E58D2592
S123B1F0368D2233BBAC1CF9AC1BB7AC3EF7AC3D8D131627CE8D0EFEAC3DA70008FFAC3D9B
S123B2105A26F220BECEA840BDB4062711A6018108260D32328604A700BDB40626090C3982
S123B230B7AC20810427718D717EADE386008D3925118D077CAC4C8D8720F15F7FAC1B7F7B
S107B250AC1C39F6FF
S123B254AC4C27037EAD037EADD886028D218DE7BDB1D0F6AC1D2705FEAC1E6E00CEAC5CA4
S123B27486817EADDD36CEA840BDB049322516CEA840BDB0F48601A7008D8624037EB35197
S123B29486FFA73B39B6AC11810D2708B1AC0227037EADD80D39FFAC3FA601B7AC20277049
S123B2B4BDADE9FEAC2D26078110275BCEACA8FFAC41CEA8406D0227098604A700BDB40601
S123B2D42633CEA838FFAC3DC60BFEAC41BDB10ECEA840B6AC0BA7038601A700BDB4062697
S123B2F414B6AC204A47474C6F20A7218615A700BDB406271CCEAC758D10B6AC20A7016F04
S107B314005FBDAF66
S123B318942006CEAC82BDAE9DFEAC3F39BDAECFCEA840B6AC20C6044A84032705CB3F4AA4
S123B33826FBE722BDB40626C8BDAF53810D26F48604A700BDB40620D0CEAC6B7EADE03241
S123B35833B7AC43F7AC44BFAC457FAC207CAC287EADB67FAC28BEAC45F6AC20FEAC436EC6
S119B378007DACFC26037EB37ECEA840861BA701BDB2AA7EAD6615
S106B3FD7EAA0021
S123AA002006BDAAEA3980A08639B7B3FDB6AC2BF6AC2CCBA18900B7AA06F7AA07FEB3F537
S123AA20AD00FEB3FBFFAD0AFFAD0DFEB3E5FFAEB1FFAEBCFEB3F9FFAD10FFAD13FEB3F720
S123AA40FFAD4FFEB3F3FFB37FFEB3EBFFAD7CFEB3E9FFAD76CE00A0C6B9A600E70001E146
S123AA60002615A700FFAC3BB6AC3B8B04B7AC3BFEAC3BBCAA0626E2FFAC3BB6AC3C80A142
S123AA80B7AC3CB6AC3B8200B7AC3BFEAC3BFFAC2BCEAD03FFAC16CEAB18BDAE9DBDAECF89
S123AAA0BDAA02BDAECFCEA8408601A700BDB4062708A601BDB2307EAD66CEA080FFAC14E1
S107AAC0CEA840BD1B
S123AAC4B40627037EB309FEAC14A70008810D26E8CEA840BDB225CEA080FFAC14CEAD666F
S123AAE4FFAC437EB35FCEAB27BDAE9DBDAE478D1425F3B7AC0E8D0D25ECB7AC0F8D062577
S123AB04E5B7AC1039BDB18A2509B6AC1C5D27020C390D393638303020464C455820563321
S118AB242E30044441544520284D4D2C44442C5959293F200498
S113A840FF000000535441525455500054585400D2
S123A7007EA7247EA7037EA7467EA7807EA78E7EA71F0C00000000A810A81000000000FE43
S123A720B3E76E00FEAC31AF027DAC342610CEACFC7CAC346D002706FFAC31AE023BCEAC41
S123A740F87FAC3420F2010F7DA71B2726FEA719A60036A601E602CEAAC0A740E74132A7A7
S123A760036F008601A7026F226F3B7DA71E27243F20F8010EFEB3EDAD007FACFC3F20F53F
S123A780010F7DAC3027033F20F67CAC30397FAC30010E397DA71D2625CEAAC0BDB4062638
S123A7A01D7DA71C270D7FA71C810A270D36860A8D3D32810D2603B7A71C8D3320D6860DC7
S107A7C08D2D860A47
S123A7C48D29B6A7128D247FA71DFEA7196D0327056A037EA746080808088CA8402603CE9B
S119A7E4A810FFA7197AA71B7EA746BDACD82B033F20F87EACE469
S123B4003638303020464C4558204449534B204F5045524154494E472053595354454D20D2
S123B420434F5059524947485420284329203139383020425920544543484E4943414C2023
S123B44053595354454D5320434F4E53554C54414E54532C20494E432E2057455354204C0F
S115B46041464159455454452C20494E20343739303676
S10CB4007EB4367EB45A7EB47B9E
S123B435FFBDBE95CEB409C60A8D11CE0005FFB413FFB4157FB41ACEB41BC61A6F00085AEF
S123B45526FA7EA70CBDA709FEB40927EAC61C095A26FCFFB40BBDBADD24EDFEB40B6F0291
S123B475BDA70CC6FF397DACFC2703BDA70937FFB40B6F01E6002621E6022719C1022710D5
S123B495BDB5D6FEB40B252A7DACFC26275F3339BDB6E620EEC6122019C1162304C60120A5
S123B4B5115A58CEB4D0BDB57DEE00AD00FEB40B2402E701BDA70C6D013339B9A8B9F5BBF5
S123B4D511BADDB601B82FB845B888B659B6B7B989BBE2BB43B6B3BAA1B823B58FB5B1BB73
S107B4F51FBDE1BDD5
S123B4F91FBD078D2B2604C6020D39A700E701EE006F006F01398D182704C60D0D39FFB42B
S123B5190DEE00A600E601FEB40DA700E7010C39B6B40BF6B40CCB1C8900CEB4096D00263A
S123B539086D0126048CFFFF39A1002605E101260139EE0020E7FEB40B4F5F8D02C62FA7F2
S123B55911085A26FA39FEB40BC60BA604A724085A26F839FEB40BC60BA604A12426040817
S123B5795A26F639FFB40DFBB40EF7B40E24037CB40DFEB40D39FEB40BE602542504C61273
S123B5992014E623207DFEB40BE622376C228DD4A740335C26210D39FEB40BE602C403C199
S107B5B9032704C696
S123B5BD120D39CA80E702E60FC5802608E6238DAFA7400C39C60B0D39A63B2B3927074A32
S123B5DDA73B8620201C8D2E25198118221427F68109260B8D20250BFEB40BA73B20DA4D23
S123B5FD27E40C39BDBACA250916542405A7007EB9C2C6120D39FEB40BE62227096C22BDDA
S123B61DB57DA6400C398D0324EC39FEB40BA640E6416C2126026C204D26035D271AA71EEF
S123B63DE71F368604A722328D12240FC5802704C6102006C6092002C6080D398D27FEB47F
S123B65D0BBDBE8C250F8D0EBDBE8026020C39378D1B3324F139FEB40BA61EE61F37C6405D
S107B67DBDB57D33A3
S123B681394FB7B411B7B41239C5102611C5802623F6B4115CC1072705F7B41120147FB423
S123B6A111F6B4125CC104270BF7B412FEB40BBDBE890C390D398DC9FEB40BBDBE8C2520FD
S123B6C1FEB40B8DADBDBE83260CB6B4352705BDBE8626020C39C5402609378DAC3324E02A
S123B6E139C6200D39FEB40BE63B2B358120260E5CE73BC17F260C200C8D0A24E8395D2751
S123B7012020F60C3936C10126048620200D86098D0F32250B36FEB40BA63B6F3B8D0232E8
S123B72139FEB40BE60254251D54241AE622C1042606368D2332250DBDB59F2408C604FEB6
S107B741B40BE72238
S123B7450C39C6120D39FEB40B4FA720A721A742A7432024E6122620E617274B6F178D47C4
S123B765252D8DE225298DDE2525FEB40BC602E717A611E6127EBC9C8D0FFEB40BA740E7CD
S123B78541BDB6B724217EBBCE8D05A600E60139FEB40BE603174848581B16CEB41DBDB5AA
S123B7A57DFFB41B6D00398DE02604C6070D39FEB40BA713E7146D122604A711E7126C1697
S123B7C526026C156D17270CBDBC5C25E0FEB40BA613E614BDB63B25D4FEB40BA640E64145
S123B7E536378DAC3332A700E701260A6F026F036F046F05200AA6058001A70524026A0416
S107B8054FFEB40B2F
S123B8096C2126026C205FA740085A26FAFEB40BA620E621A742E7430C395F37C603200DA4
S123B829FEB415FFB413F6B41337F6B414FEB40BE74133E7407FB4185FE72239FEB40BE6EE
S123B849222623BDB6282536FEB40B7DB418260A9644B7B4189645B7B4198610A722A61E65
S123B869E61FA72FE730A622A731C618FFB40F37BDB61333FEB40FA704085A26EF0C39FE73
S123B889B40BA631A722C618FFB40FA60437BDB72233FEB40F085A26EF7EB6B7FEB40BA66C
S123B8A903A723B6B4177DB41A2630A703FEB415FFB4138C0005270C8D212335FEB418FFC2
S107B8C9B41320EFA1
S123B8CDFEB40BA623A7032A0EBDBDE125348D07231BBDBDD320F2FEB40B7FB41ABDB55F2F
S123B8EDBDB82FBDB8452406C10827160D39FEB40BA604270B2A028D0EBDB56D26E50C39D4
S123B90D8D058CFFFF0C39A633260CA62FE630A732E733A631A73439BDB79526218D2125BE
S123B92D1EC606FEB40BFFB40FFEB40FA65D08FFB40FFEB41BA70008FFB41B5A26EB0C3905
S123B94DBDB823BDB6282507FEB40BC610E72239BDB7958DEB25F8C606FEB40BFFB40FFEBB
S123B96DB41BA60008FFB41BFEB40FA75D08FFB40F5A26EBBDB6B724D67EBBCEFEB40B8603
S107B98D02A702A661
S123B9912FE630A71EE71FBDB6592508BDB88824057EBBCEC60A39BDB4FC253ABDB8A52548
S123B9B1352638FEB40B7DB41A2706A60F85202626BDBCE82527A611E612A740E741BDBA22
S123B9D192E617271037BDB62833250A5A26F6FEB40B5FE7220C39C6112002C60437BDB50C
S123B9F10F330D39FEB40B6D032A08BDBDE12403C61039BDB4FC25E5BDB54FBDB92525DDE5
S123BA11BDB8A525D82604C60320D2BDBCE825CDFEB40BC60A6F0F085A26FAFEB40BA632A0
S123BA31E6332727A72FE730A634A731B6AC0EF6AC0FA719E71AB6AC10A71BBDBDD3BDB912
S107BA5189259A8D18
S123BA553C8604A7220C39FEB40B6F176C12A62FE630BDB63B250DBDB77D2508BDB6B72401
S123BA7506BDBBCE7EB9EEFEB40BA61EE61FA732E7338610A734BDB95D25E9208AFEB40B0A
S123BA95A600A7026F006F3B4FA722398D27250D6F004424037EB628C604E7220C39FEB4EE
S123BAB50BA6028183260C8603A702BDB6B724037EBBCE0C398DE7250EFEB40BA602810325
S123BAD522020C39C6120D398DEB252F81022708FEB40B6F027EB50FA6122605BDBBB320AA
S123BAF5188DC82516FEB40B6D172705BDBCB2250ABDB9892505BDB95D24D539BDB9A8254D
S107BB1528BDB62865
S123BB19252386032019BDB9A8251AFEB40BA60F85802612A613E614BDB63B25088602FEDE
S123BB39B40BA7020C39C60B0D398D31BDB8A525272722FEB40BC60BA624A704085A26F834
S123BB598D462514FEB40BA60F858026D9856026088D0A204CC6030D39C60C0D39FEB40B4C
S123BB79860BB7B411A604E635A735E704087AB41126F2FEB40BA60C260AC603A63DA70CB2
S123BB99085A26F8FEB40B398DD3BDB8A525062605FEB40B0C39C6040D39FEB40B86FFA747
S123BBB904BDB989FEB40B8600A70239A740E741BDB6B72413C5402608C580270AC6102031
S107BBD906C60B206D
S123BBDD02C60A0D39BDB925256C8DBA2568FEB40BA60F8580266085602660BDB795FEB409
S123BBFD1BA602E6032612FEB40BA611E612273EFEB41BA700E7012015FEB40BBDB63B254E
S123BC1D35FEB40BA611E61227248D9C2528FEB40BA613E614FEB41BA702E703FEB40BA66E
S123BC3D15E616FEB41BEB05A904A704E705BDBBB32503BDB95D39C60B2002C60C0D39A6C1
S123BC5D1EE61F5CE13C2303C6014CA113260FE114260BA63781FF27054CA7370C398D3525
S123BC7D2532FEB40BA63A8B03261AA61EE61FA1112604E1122704C6170D39A640E641A747
S107BC9D38E73986C1
S123BCA104A73AA613E614A735E7368601A7370C39A638E639BDB63B25F6FEB40BE63AFFA2
S123BCC1B40FBDB57DFFB40DC603FEB40FA63508FFB40FFEB40DA74008FFB40D5A26EBBD28
S123BCE1B6B724CC7EBBCEBDB823BDB6282540FEB40B6F206F21A667A73C5F6F40085A26E1
S123BD01FAFEB40B0C39FEB40BA617271FA620E621C00182002A037EBDC0A720E721BDBAE4
S123BD21CA250C4624066F00A6172604C6120D397FB411A611E6126D2026066D212602209D
S123BD4166BDBDC425E94F5F6D022773EB028900FFB40FFEB40BA120222F2504E1212429F6
S107BD61FEB40F0811
S123BD65080836B6B4114CB7B4118154270781A832274820CF37FEB40BA640E6418D402582
S123BD853A333220BFE021A220FEB40FA602104A16A600EB01FEB40B2504E13C2305E03CA7
S123BDA54C20F7BDB63B2516FEB40BA642E643A1202604E1212715C6190D39C6180D39BD31
S123BDC5B63B2509FEB40BC644BDB57D0C39FEB40BC60BA624A704085A26F839FEB40BA621
S11CBDE5034C8104240FA7032605BDBE8F2003BDBE9225E839C6100D39C9
S9030000FC
